:1000000080D10220A92800001D340100D928000059
:10001000D9280000D9280000D9280000D9280000DC
:1000200000000000000000000000000005280000A3
:10003000D928000000000000AD270000092C0100B5
:10004000692800006928000069280000692800006C
:10005000692800006928000069280000692800005C
:10006000692800006928000069280000692800004C
:10007000692800006928000069280000692800003C
:10008000692800006928000069280000692800002C
:10009000692800006928000069280000692800001C
:1000A000692800006928000069280000692800000C
:1000B00069280000692800006928000069280000FC
:1000C00069280000692800006928000069280000EC
:1000D00069280000692800006928000069280000DC
:1000E00069280000692800006928000069280000CC
:1000F00069280000692800006928000069280000BC
:1001000069280000692800006928000069280000AB
:10011000692800006928000069280000692800009B
:10012000692800006928000069280000692800008B
:10013000692800006928000069280000692800007B
:10014000692800006928000069280000692800006B
:04015000692800001A
:1001540053B94AB9002908BF00281CBF4FF0FF312A
:100164004FF0FF3000F070B9ADF1080C6DE904CE2A
:1001740000F006F8DDF804E0DDE9022304B070477E
:100184002DE9F047089E0D4604468A46002B7FD190
:100194008A42174641D9B2FA82F24AB1C2F1200129
:1001A40005FA02F39740944020FA01F141EA030A68
:1001B4004FEA17484FEA144C1FFA87F9BAFBF8FEC6
:1001C40008FB1EA30EFB09F14CEA0343994206D92E
:1001D400FB1802D2994200F224810EF1FF3E591A13
:1001E400A3B2B1FBF8F008FB101100FB09F943EAD4
:1001F4000144A14505D93C1902D2A14500F20E8162
:100204000138A4EB090440EA0E4000211EB1D44099
:100214000023C6E90043BDE8F08702B9FFDEB2FA65
:1002240082F2002A4FD1CB1B4FEA174E1FFA87F8F0
:100234000121250CB3FBFEFC0EFB1C302B4608FBF6
:100244000CF945EA0045A9450AD97D192CBF0123BB
:100254000023A94502D9002B00F0D9800CF1FF3C02
:10026400A5EB0905A3B2B5FBFEF00EFB105508FB88
:1002740000F843EA0544A04505D93C1902D2A0453B
:1002840000F2C9800138A4EB080440EA0C40BDE741
:100294008B4208D9002E00F0B1800021C6E9000588
:1002A4000846BDE8F087B3FA83F1002946D1AB4292
:1002B400C0F0A780824240F2A4800846002EAAD053
:1002C400C6E9004AA7E7C2F12000974001FA02F309
:1002D4004FEA174EC14024FA00F51FFA87F89440FC
:1002E4001D43B1FBFEF02B0C0EFB101100FB08FCB0
:1002F40043EA01439C4509D9FB182CBF0121002185
:100304009C4502D9002900F095800138A3EB0C0329
:10031400ADB2B3FBFEF10EFB113301FB08FC45EA61
:100324000345AC4505D97D1902D2AC4500F289805C
:100334000139A5EB0C0341EA00417AE7C1F120043D
:100344008B4002FA01F705FA01FCE24020FA04F8B6
:10035400E54000FA01FE134348EA0C024FEA134851
:100364004FEA124C1FFA83F9B5FBF8FA08FB1A5549
:100374000AFB09F04CEA054C60450AD913EB0C0C56
:100384002CBF01250025604501D9002D55D00AF167
:10039400FF3AACEB000C92B2BCFBF8F008FB10CCBB
:1003A40000FB09F942EA0C4CE14505D913EB0C0CAE
:1003B40001D2E1453BD8013840EA0A40ACEB090CD4
:1003C400A0FB0789CC4545464A4602D306D1C6451B
:1003D40004D20138B8EB070569EB03022EB3BEEB78
:1003E40005036CEB020C23FA01F20CFA04F42CFA68
:1003F40001F300211443C6E900430CE731463046BB
:1004040009E7841A65EB030301209A4656E7ACF129
:10041400020C3D4424E702383C4434E702383C44AF
:10042400EFE6AEF1020E3B44D9E63146F3E602387C
:100434009C44C1E702383B4468E7AAF1020A9C44A1
:10044400A7E702393D4474E7704700BF034A0346F7
:10045400126812B102480370104770471812002046
:10046400009F022030B5084D89B003AC0FCD0FC4F6
:100474002B680222236001230449009303A8044B40
:1004840004F04EF909B030BD60D70100D8D701009F
:10049400E8D7010008B50268044B05481A6004F067
:1004A40093FBBDE80840002003F09CBF1812002015
:1004B40030010020064A0749137883F001031370C2
:1004C400054A002B08BF1146044B18681BF094BE64
:1004D4000C9F02200855020020EC01004812002065
:1004E40037B53C22334D2968013191FBF2F302FB0D
:1004F40013132960C91A91FBF2F191FBF2F002FB8C
:1005040010122D492D4802F081FC2D4B2B491868FF
:100514001BF072FE0A232A6892FBF3F403FB1424F3
:10052400002C44D1B2F5617F2CDB26481CF0E1FDA0
:1005340011F084FB15F022FE00214FF4004011F06D
:100544007BFB2A6820491D4802F060FC09221B49F4
:10055400204601F0AFFD11F071FB21460EF02EFD97
:100564001A4D21461A4A28601BF098FC286801217C
:10057400174A1BF093FC1749286803B0BDE83040C4
:1005840015F03FBC144B15491B680C480193144BE0
:100594001B6841330093134B1B6802F037FC09229C
:1005A4002046064903B0BDE8304001F083BD03B0E6
:1005B40030BD00BF4412002014550200039F0220E6
:1005C40040120020100700201C55020034120020A5
:1005D4002CE10100290700000C020020265502002E
:1005E400281200201002002070B56424094D0A4E20
:1005F4002B78304683F001032B7011F01BFB09218B
:100604002A7811F007FB2120002111F015FB013C91
:10061400EED170BD029F022035550200012304492A
:100624000B70087200220023024810F00FB800BFBC
:100634004C1200206008002010B504460E491BF03F
:10064400DBFD204601211BF0A1FC204605211BF007
:100654002AFE0A4B20461B780021002B14BF0522DA
:10066400E62215F0A1FC2046BDE810401E224FF4FE
:10067400A07115F017BD00BF3C550200C105002054
:1006840070B504460E461D4611461BF0B5FD2046C6
:1006940001211BF07BFC204605211BF004FE2046B3
:1006A40032B2002115F080FC20465A224FF4A0718A
:1006B40015F0F8FC2B46204648F28E02002115F076
:1006C400F7FF2046BDE8704048F289020021014B43
:1006D40015F0DBBFFF0000FF10B50C46002201211E
:1006E4001AF081FB20460C491BF086FD0B4B40F2AF
:1006F40013111B782046002B4FF0B80218BF23219A
:1007040015F052FC2046BDE8104048F28902002151
:10071400034B15F0BABF00BFF2B80B00C1050020AF
:10072400800000FF2DE9F04111F0EF0465D16F4B1B
:100734001B68984235D16E4D6E4811F07BFA012248
:100744001C2111F09EFA29686B4B0629D8BF4C1C5A
:1007540053F824102C600124684B18681BF04CFDDE
:100764002A6867494132674802F050FB664B654985
:1007740018681BF041FD654B654D1C60654B2C7082
:100784001968654B1868FFF7A7FF00232B70634BAC
:100794001C60634BBDE8F0411968624B1868FFF7B1
:1007A4009BBF614B1B6898420ED1FFF71DFFBFF33F
:1007B4004F8F5E495E4BCA6802F4E0621343CB601C
:1007C400BFF34F8F00BFFDE7534D2B68984245D1CF
:1007D4004F4C267846B9474811F02CFA32461D2171
:1007E40011F04FFA01232370484C424F26462868E3
:1007F4001BF0D9FD2368984201D1BDE8F081286837
:100804001BF0D1FD2368984220DD01333846236074
:1008140011F010FA01221E21DFF8F88011F031FAEC
:1008240032684449374802F0F1FAD8F800003549F3
:100834001BF0E2FC32682321C2F10A0212012332C6
:10084400D8F8000012B215F0AFFBD0E7013B3846F0
:10085400236011F0EFF901221F21DDE7314D2B68F0
:100864009842CAD12A4E33783BB1224811F0E2F9BA
:1008740022461D2111F005FA3470284C1D4F2646DE
:1008840028681BF090FD23689842B6D028681BF0B6
:100894008AFD2368984221DD01333846236011F034
:1008A400C9F901221E21DFF8788011F0EAF93268D3
:1008B4002049144802F0AAFAD8F8000011491BF0A4
:1008C4009BFC326840F21311C2F10A021201233276
:1008D400D8F8000012B215F067FBD1E7013B3846A7
:1008E400236011F0A7F901221F21DCE71C1200206C
:1008F4002812002035550200EC01002020120020AF
:1009040041550200039F02202412002010020020FF
:10091400C1050020381200203C1200200C020020E7
:100924002C120020301200203412002000ED00E0D0
:100934000400FA054655020070B50446514E0D46B2
:100944000A2201211AF078FA33782046002B14BFCA
:100954000A21012100221AF046FACC2220463C2129
:1009640015F0A0FB2046012115F030FA4649204637
:1009740015F047FA33782046002B14BF0A21FA21D8
:10098400122215F011FB20461E22002111F05DF900
:1009940020460022022111F058F93378002B14BFAD
:1009A400E620CE204FF0000315BFD421A9217F22D9
:1009B400002260F3070361F30F2362F31743204619
:1009C4002922002143F07F4315F05FFE3378002B8A
:1009D40014BFCE20E6204FF0000315BFA921D42177
:1009E40000227F2260F3070361F30F2362F31743AE
:1009F40020462922022143F07F4315F046FE337836
:100A0400002B14BFE620CE204FF0000315BFD421E5
:100A1400A9217F22002260F3070361F30F2362F30D
:100A2400174320462922012143F07F4315F02DFE70
:100A3400337840F21311002B0EBFB8222122232158
:100A4400284615F0B1FA48F2890228460F4B0021D6
:100A540015F01BFE284601211BF098FA31780C4A48
:100A64000C4B2846002914BF114619461BF0C4FB41
:100A74002846BDE8704048F28E020021064B15F06E
:100A840017BE00BFC105002029070000800000FF39
:100A940025EC01004955020044010020F0B587B05F
:100AA40011F0CCF829224FF07F43002115F0EDFD21
:100AB4000BF080FC11F0C2F800210FF0EDF8704C3F
:100AC400704D206011F0BAF800210EF03DFD6E4B20
:100AD400014618602068FFF72FFF11F0AFF80021DE
:100AE4000EF032FD00242860FFF7A6FD674B684E28
:100AF4001C7011F0A3F821460FF0CEF8306011F00D
:100B04009DF821460EF020FD624B014618603068C6
:100B1400FFF712FF11F092F821460EF015FD5E4B1F
:100B24005E4E1860FFF788FD11F088F8214608F042
:100B34003BFC30225021306015F036FA30689022A8
:100B4400A02115F0AFFA214630684FF07F432922E7
:100B540015F09BFD214630683922514B15F095FD67
:100B640040F239224E4B2146306815F08EFD4D4936
:100B7400306815F046F911F061F821460EF0E4FCF6
:100B8400494B4A4A18604A4B19684A4B52F821208B
:100B94003C21FFF775FD11F051F821460EF0D4FC0D
:100BA400454B464A91211860454BFFF769FD11F00A
:100BB40045F821460DF082FF424906461AF0A9FF86
:100BC400414811F037F883685B6898470BF0F2FBF3
:100BD4003E4811F02FF822461E2111F052F8002150
:100BE4004FF4803011F028F8384811F023F801222E
:100BF4001E2111F046F80121304615F036FA4FF463
:100C0400004200233248CDE900230022002310F0E3
:100C1400ADFD2C464FF4804600272E4D00220023C4
:100C2400284603A90FF066FD38B10BF0C3FB002181
:100C34004FF4247011F000F8EFE79DF80C30012B0D
:100C4400ECD19DF81430012B0BD0022B13D0002BC8
:100C5400E4D121481CF04DFA204920681BF0CCFA5D
:100C6400DCE74FF480420023CDE900671A4810F016
:100C74007DFD1B49F1E718481CF03BFA1949ECE7E4
:100C84003C1200204812002038120020C105002028
:100C9400301200202C120020401200201C120020D0
:100CA400FF0000FF2907000020120020EC010020B3
:100CB400281200207C010020241200204B55020041
:100CC400B401002038E101004F55020035550200FF
:100CD4001007002060080020480700203C5502004F
:100CE400085502005755020007B51C4B01A8019393
:100CF400FFF7D0FBFFF7B6FB0120FFF78FFC184886
:100D04000FF016FB4FF4D0521C2110F0D6FF1448FC
:100D14000FF00EFB4FF4D0521D2110F0CEFF1048FF
:100D24000FF006FB4FF4D0521E2110F0C6FF0C4802
:100D34000FF0FEFA4FF4D0521F2110F0BEFF084806
:100D44000FF0F6FA4FF4B052092110F0B6FF00216B
:100D54004FF4004010F098F9F9E700BFDD1C0100E2
:100D6400355502000B6801330B60014B1B681847B3
:100D740014020020014B1860704700BF14020020C9
:100D840007B50B46002102460191034801A900F072
:100D9400EBF803B05DF804FB690D00002DE9F84F92
:100DA400B0F81890044619F0080893460DD00129AC
:100DB4000CBF49F0100949F02009A0F818908BF3F2
:100DC4001188BFF36F8FBDE8F88F09F00709022976
:100DD40007D1204610F0CDFF0028F0D00128238B46
:100DE40050D16769218B002F15DA256821F007019E
:100DF400C4E9008841F0010121830026218B01F020
:100E0400070ACA4502D0A368002B5CD10DB9002E95
:100E140074D0002358E001F007035A1F012A20D898
:100E240021F00701062B256889B2C4E900880CD19A
:100E3400002D2B4638BF00232BB1628B1B68013277
:100E44006283002BF8D141F002012046218310F087
:100E540090FF06460028D1D0238B43F02003238340
:100E6400CBE7042B0CD121F0070189B22046218362
:100E740010F07FFF05460028BFD041F020012183F8
:100E84000025BAE7032809D1226923F0070316686D
:100E940043F00603002523832F46AFE7042806D139
:100EA400226923F00703566843F00403F2E7052898
:100EB40006D1226923F00703966843F00503E9E7A6
:100EC40000252E46E8E7012341F0080121838BF336
:100ED4001188BFF36F8F03BB002D33D116B12046A9
:100EE4002049B0474FF02003EFF3118B83F31188AF
:100EF400BFF36F8F238B23F008032383238BDA063E
:100F040028D5012123F010032383B4F8189009F0A5
:100F1400070900297FF45BAF51E7A1680029DBD002
:100F24000B68002B38BF0023994652463B462046A7
:100F3400D1F804B0D847B9F1000FCDD04946D9F85B
:100F44000030EEE729463B46524620462D6810F015
:100F54002CFFC1E713F020011EBF23F02003022160
:100F64002383D2E7DB1D01002DE9F04F8B46924627
:100F74001C46002591B002909AF8000008B9284652
:100F84005EE325280AF1010707D05946029B9847DA
:100F94000028C0F25583013510E2182200210AA866
:100FA40012F0EAFA9AF80130252B78D00022944600
:100FB400164696461046394617F8013B2B2B00F08F
:100FC4009D8000F29480202B00F09B80232B00F066
:100FD4009A8028B19DF8300040F004008DF830006C
:100FE400BEF1000F05D09DF8300040F008008DF8E8
:100FF40030002EB19DF8300040F010008DF8300024
:10100400BCF1000F05D09DF8300040F020008DF8B1
:1010140030002AB19DF8302042F040028DF8302093
:101024009DF8302002F04400442803D16FF3861267
:101034008DF830209DF830202A2B42F080028DF864
:1010440030207BD19DF831204B1C42F001028DF8F9
:1010540031201A782E2A0CBF012100219DF831205D
:1010640061F341028DF8312074D15A782A2A6AD06A
:1010740000210A260133184610F8012BA2F130078B
:10108400092F40F28E809DF830200E91C2F340006B
:1010940040EAD17161F341028DF830205AE00AF13F
:1010A40002078DF833309DF83130D90740F149817A
:1010B40054F8049BB9F1000F07DA9DF83020C9F108
:1010C400000942F004028DF830205A0740F14281B1
:1010D40054F8048BB8F1000F80F241819DF831304F
:1010E4006FF341038DF831304FF0FF3837E12D2B8A
:1010F4000CD0302B7FF46DAF01225CE74FF0010E72
:1011040059E7012657E74FF0010C54E7012052E755
:1011140033460CFB0202303A1E4616F8010BA0F1CE
:101124003007092FF4D9994293D09DF830100D92CD
:10113400D20F62F341018DF830108AE70B4600228A
:101144004FF00A0CE8E79DF83120023342F0040224
:101154008DF831201F4617F8012B6C2A41D025D871
:10116400682A2BD06A2A46D04C2A4CD01F4617F83E
:10117400012B9DF83130782A8DF8332000F2D98084
:10118400572A4DD8412A03D0453A022A00F2D18089
:1011940004229DF8323062F302038DF832300123C9
:1011A4009EE006FB01210346303964E7742A26D009
:1011B4007A2ADBD106229DF831300DE05A78682A6C
:1011C4009DF8312006D1012161F3C6028DF831204A
:1011D4009F1CCCE71346022262F3C6038DF831301C
:1011E400C5E75A786C2A9DF8312001D10421EBE738
:1011F40013460322F0E705229DF83130ECE707227D
:101204009DF83130E8E7BDF8303023F4F04323F0A3
:10121400020343F4804343F00203ADF83030A6E701
:10122400A2F15801202900F2848001A050F821F095
:10123400F9120000371300003713000037130000C1
:101244003713000037130000371300003713000072
:10125400371300009511000037130000F912000045
:10126400B9120000951100009511000095110000BD
:1012740037130000B91200003713000037130000C1
:10128400371300003713000001130000F9120000A7
:101294001D13000037130000371300001D13000056
:1012A40037130000F9120000371300003713000051
:1012B400F912000001209DF8321003F0780360F366
:1012C4000201402B8DF8321002BF9DF8301041F01E
:1012D40001018DF83010632A31D1003B18BF01237E
:1012E4009DF83020C2F340010B4363F341028DF8B3
:1012F4003020D8E602209DF83210DEE703219DF865
:10130400322003F07803A3F1400061F30202434268
:101314008DF832204341E3E703219DF8322013F096
:10132400780F61F3020214BF012300238DF83220E9
:10133400D6E79DF8303043F001038DF830300023B8
:10134400CEE79DF93020002AACBF4FF0FF39DDF81D
:101354003490BAE69B077FF5C7AEDDF838800023EA
:10136400CDE90D339DF832309DF8312003F00703A9
:10137400012BC2F3C30236D1D31E042B20D8DFE8DD
:1013840003F00307071F1F0054F8040BC11704E000
:10139400073424F00704F4E80201CDE90A019DF8BA
:1013A400303013F0030654D03B4652465946029857
:1013B40011F090F80028C0F243810544BA46DBE5F9
:1013C40054F8040B012A4FEAE071CDE90A0105D172
:1013D4009DF828300A9300230B93E0E7022ADED11C
:1013E400BDF92800D2E7022B23D1D31E042B13D836
:1013F400DFE803F0030A0A12120000212068231D0B
:101404000A900B911C46CAE7073424F00703F3E85B
:101414000201CDE90A01F5E754F8043B012A0A93D5
:101424004FF000030B93D3D0022AB8D1BDF8283073
:10143400D0E7042B07D1073424F00704F4E80201B1
:10144400CDE90A01ABE7032B04BF54F8043B0A932C
:10145400A5E79DF833007828B0D8622822D825283B
:101464003FF493AD5828A9D1DDE90A010DF1260313
:1014740000930CAA04AB10F0E2FF8246B8F1000F0F
:101484000DF126000CDB9DF83020A0EB0A036FF36E
:10149400861298458DF8302002D9A8EB03030D93EA
:1014A40080463DE06338152888D801A151F820F022
:1014B4003515000099150000C1130000C113000088
:1014C400C1130000C113000099150000C1130000EE
:1014D400C1130000C1130000C1130000F715000080
:1014E400C5150000C9150000C1130000C113000098
:1014F4000D150000C1130000C5150000C113000044
:10150400C1130000C5150000B8F1000FDDF828A0D4
:101514000ADB4146504611F0D0FF00260AEB0008D2
:10152400BAF1000F0CD149E7504611F0BFFFF4E7C0
:1015340000260A9B0DF111088DF810300DF1100AE8
:10154400A8EB0A0306B101339DF83220D0066BD50F
:10155400023352060D9948BF0E9A0B4448BF9B189C
:10156400B9F1000F79DD9DF83020A9EB0309C2F32E
:1015740080030393530770D4500664D546B159468B
:101584003046029B984700285ADB039B01351E46D0
:10159400302359E01E0711D413F0100618BF20267B
:1015A400DDE90A23002A73F10001BFF65DAF524260
:1015B40063EB43032D26CDE90A2355E72B26EFE7FA
:1015C400002651E70A9848B30DF126030093002141
:1015D40004AB0CAA10F033FFBDF83230824603F09E
:1015E400EF0343F4F04343F010030026ADF8323028
:1015F40044E70A9B072A3FF6E1AEDFE802F00D0458
:10160400060D08080D0D1D70D8E61D80D6E6284687
:10161400E917C3E90001D1E61D60CFE6DFF8C48015
:101624000646A8F1050A8BE7110748BF013390E786
:10163400184603935946029B98470028039B04DAF3
:1016440011B0BDE8F08F20234D444A46002AA5EB93
:10165400090109F1FF39EBDC0D4636B15946304634
:10166400029B98470028EBDB01359DF83230D90600
:1016740001D41A0706D559463020029B9847002802
:10168400DEDB01359DF83230DB0607D559469DF87F
:101694003300029B98470028D2DB01350D9E2E446F
:1016A400731B002B16DC434652465946029810F031
:1016B40011FF0028C4DB0544A944A9EB0503002B52
:1016C4007FF77CAE59462020029B98470028B7DB61
:1016D4000135F2E759463020029B98470028AFDBDA
:1016E4000135DDE7A4B50B00094B1B68072B0DD1B1
:1016F400084B1B68023B032B08D8074AD35C2BB169
:10170400404080F311884FF0040002DF002070474E
:101714003001FF003401FF00A5B50B00094B0A4955
:1017240000F01F024009012808BF0B4603EB8203A7
:10173400D3F8002222F0E04242F04052C3F80022E3
:10174400704700BF002584500028845070B54FF0C6
:101754002003EFF3118683F31188BFF36F8F012405
:101764000B4D0C4B0020C3F80045C5F8D046FFF7DD
:10177400D5FF2046FFF7D2FFC5F80447C5F8044952
:10178400C5F8004B86F31188BFF36F8F002070BD3E
:10179400004000500010005048B1054B1A68054B3A
:1017A400B2FBF3F2044B504343F001031847704774
:1017B4004C04002040420F00D0D70100014B1970A7
:1017C400704700BF000007200020014B18707047CD
:1017D40000000720014B18681AF095BF681200201A
:1017E400054B13B5186800238268009314681946E2
:1017F4001A46A04702B010BD581200200749D1E88C
:10180400EF3F43F00102C1E8E02F0028F7D1DB07E6
:1018140003D4034808391BF01ABA70476412002035
:10182400400A0020F0B5394B85B002AC06460D469F
:1018340093E803004FF4006284E803004FF0FF33A1
:10184400334934480FF07EFD334934481BF065FBBF
:101854000022334B33492046C3E901121A6006F0D3
:101864003DFE044678B9304806F018FE044650B9E7
:101874002E492F4801AA14F02CF9044618B9019BEB
:101884009A681AB93060204605B0F0BD0C33336055
:10189400002BF8D027480EF04BFD274F386027481F
:1018A4000EF046FD3A68002A2CD000282AD083681E
:1018B40022465B682249984710F02AFE214F38607F
:1018C40010B96FF00B04DEE710F022FE78600028F8
:1018D400F7D032681C4B10215A611C4A3F685A6089
:1018E400042236689A601A620222DE62184EAA62E4
:1018F400184A9984DE61986199811F60AC612A62FB
:10190400EB62C0E76FF01204BDE700BF74D70100BB
:1019140050B00220400A0020A9B50B00580A00204C
:101924005C120020D917000048020020B4B50B0057
:10193400BEB50B00C6B50B0058120020CCB50B0089
:1019440001180000681200201802002000FC072083
:1019540000F8072044E101002DE9FF410D46134C36
:10196400064621682846174611F0B0FDA04628B166
:101974002846E16C11F0AAFDA8B901204C24444387
:101984000B4B04F108000293444463682A46CDE9F2
:10199400007331464FF0FF3340440EF06FFA10B934
:1019A400012384F8483004B0BDE8F08170120020AF
:1019B4002F25010037B50D4C0D492046FFF732FFA6
:1019C40088B90C4D4FF47C4228460B491BF012F8A1
:1019D40023680A4A06490A4800950EF089FB10B9A3
:1019E4000122084B1A7003B030BD00BF0813002059
:1019F400E00A00209C130020000407205D19000069
:101A04000C1300200D9F02200B4B30B51B780446AD
:101A14005BB90A4B186810B1DA6C4AB901204C2240
:101A240042439D189C50696030BD6FF04300FBE752
:101A34006FF00B00F8E700BF0D9F0220701200202A
:101A44004C22034B02FB003090F84800704700BF63
:101A54007012002037B54C240B4601214443CDE9D4
:101A64000021054D28190834D0E90B1228190EF06D
:101A7400F3F903B030BD00BF70120020044608B56E
:101A84004FF02002EFF3118382F31188BFF36F8FBD
:101A940011F0BAF8204601F009F8034810F05CF997
:101AA40000F0C4FEFCE700BFD2B50B0010B5074838
:101AB4000EF03EFC064C074B1860204601F0A0F9DE
:101AC4002046FFF757F9002010BD00BFFBB50B00FF
:101AD400DD1A0000A81300200A2838B50446074D73
:101AE40004D1286883680D215B6898472868836857
:101AF400E1B25B689847204638BD00BFA8130020B8
:101B04000E4A70B5841A05460C20A3100C4C0E46E0
:101B14005C43E4B200FB04204021783010F010FD57
:101B2400011E05DB074B03EBC404636898470021DF
:101B340028463346BDE87040184700BFBC13002058
:101B4400B76DDBB67CE101002DE9F0410C25104EA8
:101B54008046841BA3100F4C0F465C43E4B26543DC
:101B640005F178004021304410F003FD011E09DB2B
:101B7400094A7319C3E91C27084B53F83430BDE8EC
:101B8400F041184740463B46BDE8F041184700BFC6
:101B9400BC130020B76DDBB6D92501007CE1010040
:101BA4002DE9F843002201210646052000F08EFDB0
:101BB400052000F06DFD114805F0BAFD104B984268
:101BC40019D113F021FF00244FF01C080C27DFF873
:101BD4003490F568494608FB045010F019F90028C0
:101BE40007DB012307FB04551C44042CAB67F0D12D
:101BF4000020BDE8F8836FF00400FAE7411C000000
:101C04000000AD0B9CE1010001460C2300224B4374
:101C1400084870B5C4187833D4E91C5618442267B0
:101C240010F0C5FC2DB132462B46BDE87040024889
:101C3400184770BDBC13002018060020052811D8D1
:101C4400DFE800F0030E10100C0A074B986F10F039
:101C5400070007D1FFF7D8BF0220FBE70320F9E70D
:101C64000120F7E7704700BFBC13002008B54FF010
:101C74002003EFF3118183F31188BFF36F8F124AAE
:101C8400136843F0020013F0010310600CD04FF00E
:101C94005022D2F80C34D2F80C2413F0010303D0F0
:101CA4000A4810F084FC012381F31188BFF36F8F7D
:101CB40023B1BDE808400020FFF7A6BF0120BDE81E
:101CC400084005F045BD00BF5C140020341400201A
:101CD400074BD3E8EF2F22F00201C3E8E01F0028EE
:101CE400F7D1D30702D4012005F086BD704700BFA9
:101CF4005C1400207FB500220123CDE9022304AB4C
:101D0400CDE90433094A6B46CDF800D0CDF804D0B0
:101D140010F092FC002805DB4FF480420023684653
:101D24000FF000FA07B05DF804FB00BF0F260100B6
:101D34002DE9F843012206463949D1E8EF3FC1E8CD
:101D4400E02F0028F9D133B9364937484B60CB60CE
:101D54008A6010F070F8731E012B32D8012E07D15F
:101D64004FF05023D3F81C3403F00303022B28D084
:101D74001BF0C9F8044618B92C4B1B78002B47D12B
:101D84004FF02003EFF3118583F31188BFF36F8FB6
:101D94000124274FDFF89C80DFF89C904FF05022FD
:101DA400D2F81834D2F81824D2030CD503F0030364
:101DB400022B01D0012E06D124B385F31188BFF381
:101DC4006F8FBDE8F883C4B1284600F03DFD4FF0A5
:101DD4005022D2F81835DBB2012BDFD13968002943
:101DE400DCD00021396039680221C2F8181520229C
:101DF400C8F88021C9F80030D0E7002121200FF075
:101E040043F9E4E74FF050230222C3F80423D8E750
:101E14004FF0502302220546C3F80823B9E700BF58
:101E240060140020AC130020D81300204AA0022024
:101E34000451005000E100E00850005008B500F0E3
:101E44000BF8002804DBBDE80840024801F0C8BFD5
:101E540008BD00BF04E2010008B505490548FFF7C5
:101E6400D3FD0028A9BF044B04481860002008BD16
:101E7400FB2B010045B60B008C1400202AF8FFFF51
:101E8400024B828981681868FFF7E4BD8C14002036
:101E940008B5024B1868FFF7D3FD08BD8C14002069
:101EA400044A1368C81A20F07F40034413600FF0FB
:101EB400B3BB00BF9C1400202DE9F0474FF48037DA
:101EC4004FF00009860000F1500406F15026A400EA
:101ED40006F58036A4B204F15024D6F84035DFF874
:101EE4006C8021F07F4504F580348740D8F804A540
:101EF400A3EB0A0323F07F432AF07F42012BC6F8A9
:101F0400402502D113201BF004F80AF10202AB1A97
:101F140023F07F43B3F5000F88BF1546C4F8009043
:101F2400236825F07F43C8F84473C6F84035D8F8D1
:101F340004359A4506D0EB1A023B23F07F43B3F5F0
:101F4400000F01D8BDE8F0872B46CFE700500150C1
:101F5400F8B5002427460F4E0F4B104A18461D684B
:101F640004B1F8BDD2F80413C903FAD531680029C5
:101F7400F7D0346031684FF48031C2F8481301243B
:101F8400D2F8401525B100205A681F60A847E3E73E
:101F94000560E6E7405101509014002000500150C4
:101FA40038B500244FF480334FF400120D4D012155
:101FB400C5F80845C5F804330B4B1520C3F8802138
:101FC400224600F083FB152000F062FB0123074A40
:101FD40002201360064A2B601360FFF7A9FE204617
:101FE40038BD00BF0050015000E100E0085001502E
:101FF40098140020134BB0F1FF3F08BF1846013876
:1020040000281CDD9842A8BF18460F4BD3F80425BE
:102014000E4B1968521A12F4000F18BF002022F058
:102024007F4301330A4A03440A4810600020506089
:10203400044A934294BFC9188918FFF73DBF002092
:10204400E3E700BFFFFF7F00005001509C14002015
:1020540090140020A51E00004FF02002EFF311831E
:1020640082F31188BFF36F8F064AD2F80405064A3B
:102074001268801A20F07F4083F31188BFF36F8FBA
:10208400704700BF005001509C14002010B51C463E
:10209400034B11461B680BB122469847204610BDDE
:1020A400B8140020024B5B6803B11847704700BFA7
:1020B400B814002070B50E461546044686B00021BB
:1020C4001822684611F058FA0B490C4BCDE9011659
:1020D400ADF80C5004932CB96946204604F048F935
:1020E40006B070BD0122204613F0FEF80028F3D19B
:1020F4006FF01500F4E700BF40E20100A9200000E2
:1021040001480FF081BC00BF90E2010008B508B39C
:102114004368042B07D0082B13D0F3B100680EF0EA
:10212400C1FB00200CE000220368D3E8EF1F012963
:1021340003D1C3E8E02F0028F7D1094808BF1046AF
:1021440008BD036800201B78064A03F5807342F833
:102154002300F5E76FF4E040F2E70348F0E700BF3F
:10216400E98FFFFF00000350EA8FFFFF10B504461C
:1021740018B90D4B0D485B689847616808290DD064
:1021840031F004030AD011F0020108D021460848B6
:102194000EF030FA002323600023636010BD142284
:1021A400206811F0E9F9F7E7E40400205AB60B00BF
:1021B400C014002010B5044618B9164B16485B68C5
:1021C40098476368042B23D0082B21D0CBB923680C
:1021D400BBB94FF0FF324FF0FF3321460F480EF0EA
:1021E400D7F908B923681BB90A4B0D485B689847AF
:1021F40014220021206811F0BFF9636843F0020340
:10220400636020681AF09FFC636843F00103636015
:1022140010BD00BFE40400205AB60B00C014002017
:1022240080B60B0008B540B34368042B0BD0082BD1
:1022340016D003B300684FF0FF324FF0FF330EF0B7
:10224400B9FA58B115E001220368D3E8EF1F002959
:1022540003D1C3E8E02F0028F7D10AD1002008BD3C
:102264000368074A1B7803F5807352F82330002B68
:10227400F4D00448F3E70448F1E76FF4E040EEE7F4
:1022840000000350E98FFFFFEA8FFFFF08B50649FE
:102294004023142205481AF03BFCBDE808400449D9
:1022A40004480FF003BC00BFDC140020C01400205D
:1022B400A8E2010098E20100F0B50746264E8DB071
:1022C40001AD0C460FCE0FC50FCE0FC596E8070023
:1022D40085E807003846002F39D0002C39D0381F44
:1022E4000246214610344B780D781B0443EA0563FB
:1022F400CD7804312B4311F8025C8C4243EA052368
:1023040042F8043FEFD10421144C8A07036916D123
:10231400C3F30742A55C1A0EA25C42EA0562C3F34A
:102324000725655DDBB2E35C42EA054242EA03222B
:102334000CAD21F003032B4453F82C3C534050F8CC
:10234400042F013153402C290361DED101200DB04B
:10235400F0BD2046FBE700BF7CD70100ADB60B0003
:102364002DE9F0431546064689B0002858D00029C7
:1023740059D0002A59D010230A46684619462C4CD5
:1023840010F046FC2946684610F05AFCA14605F1B7
:102394001007A035E8466A4610231178013B615CBA
:1023A40002F8011BF9D1684610F08FFC694604A8B5
:1023B40010F0C4FC01A905A810F0C0FC02A906A8ED
:1023C40010F0BCFC03A907A810F0B8FC1023684661
:1023D40019460DEB030210F01BFC39466846103712
:1023E40010F02EFCAF42D5D1102498F80030013CF7
:1023F40019F8033008F8013BF7D1684610F065FC82
:102404002946684610F01CFC10236A4619463046DB
:1024140010F0FEFB68461022214610F006FC012055
:1024240009B0BDE8F0830846FAE71046F8E700BFB4
:10243400ADB60B002DE9F04F002703689DB0039360
:102444004368DFF8B8A104938368039C0593C368C9
:1024540002910693036907934369DDE906E2089351
:1024640083690993C369DDE908CB98460A93059B00
:102474000193049B0093029B019EDD590CAB2DBA82
:10248400DD515AF8043B043705EB03094FEAF22502
:1024940085EAB21585EA72654D442BEA020302EA25
:1024A4000C0983EA09032B444344DDE900154FEA90
:1024B40074384D4088EAB408254001EA060985EAE3
:1024C400090588EAB458A844402F03EB0E05434499
:1024D400B646D84640F081804FF0100A46490B9129
:1024E40051460AF1010A1CAE0AF00F0706EB8707F2
:1024F40057F8406C01F00F094FEAB64801F10E0796
:102504000931029688EAF61801F00F011CAE06EBB9
:10251400890906EB810107F00F0751F8401C06EB0F
:10252400870759F8406C57F8407C3144029E4FEAC3
:10253400F74E88EAD6088EEA774E8EEA972E414403
:1025440071440B9E49F8401C4FEAF52905EA02083C
:1025540089EAB5192CEA050756F804EB87EA080757
:1025640089EA75694F4477440B96009E394459446F
:1025740004EA060E84EA060B019E4FEA73370E4402
:1025840087EAB3070BEA030B8BEA0E0BB04687EA24
:10259400B357009E5F44BAF1400FE34639440196B5
:1025A40023D1039E0E44049906601944059B41609F
:1025B400234400998360069B0B44C360079B4344F8
:1025C4000361089B2B444361099B134483610A9B69
:1025D4006344C3611DB0BDE8F08F0099E346CDE9C3
:1025E400004194461C462A4645E7944600942A46F0
:1025F4001C4645460B4673E7FCE20100BCE20100C1
:1026040010B50446C8B17022002110F00EFB0B4B2C
:102614000B4A0C49C4E900230B4B0C48C4E90213D0
:102624000B4BC4E9040301200A4BA36103F1745367
:10263400A3F52303A3F69243E36110BD85AE67BB04
:1026440067E6096A72F36E3C3AF54FA57F520E5164
:102654008C68059BABD9831F0A4A0B4993680968A8
:10266400D867C3F8801009494B6843F080534B6026
:10267400002383F31188BFF36F8F9368D3F880002E
:10268400704700BF945E022090EB010000ED00E073
:1026940043B2002B08DB012200F01F0002FA00F015
:1026A400024A5B0942F82300704700BF00E100E0E2
:1026B400054B420953F82220012300F01F0003FABE
:1026C40000F01040704700BF00E100E043B2002B6F
:1026D40001F10101ACBF03F16043064B4FEA411124
:1026E400C9B2ABBF03F5614300F00F0083F80013D8
:1026F4001954704714ED00E042F8203C009B0B494C
:1027040042F81C3C019B21F0010142F8183C029B59
:1027140042F8081C42F8143C4FF0807342F8043C21
:102724000023203A8265C367704700BFCD1E0100B5
:10273400044608B50E46154600F0F8F9084B9C60AF
:10274400E36E83F30B88284686F30988002163B679
:1027540081F31188BFF36F8F002200230FF0B4FBC5
:10276400945E02200E4A08B50E4B22F07F029A6056
:10277400BFF34F8FBFF36F8FD3F8882022F470021A
:10278400C3F88820EFF3148323F0040383F314883D
:102794000DF026FE0EF048FE00F09AF90DF044FE0E
:1027A4000000000000ED00E013498A684FF0380093
:1027B4001044EFF3098C80E8F01F202080F3118887
:1027C400BFF36F8F0D4F4FF000668A6A8A603E60D8
:1027D400D06F0023D36780F3118802F1380090E8AA
:1027E400F01F8CF3098802F1000004B510F00AFE12
:1027F400BDE8044070470000945E022004ED00E050
:102804001EF0040F0CBFEFF30880EFF30980816919
:1028140011F8021C0229FFD001B510F0F9FD01BD29
:10282400014910220A60704710ED00E072B6404082
:1028340080F31188BFF36F8FBFF34F8F30BF62B641
:10284400BFF36F8F704700BF72B6494081F31188A0
:1028540020BF80F3118862B6704700BF30BFFFF716
:10286400FDBF00BF01B572B60B4A506A00281EBFF7
:10287400002151621AF0DEF862B6EFF30580A0F190
:1028840010004FEAC0000549014409C99847BDE852
:102894000140034908470000945E0220F0D401007F
:1028A400ED2800000FF02DFE202080F31188084849
:1028B4004FF40061401880F30988EFF3148002217B
:1028C400084380F31488BFF36F8FFFF74BFF0000BA
:1028D400C0D20220EFF30880EFF3098101B57246FC
:1028E40000F064F801BD00BF044B9968986A8842FF
:1028F40003D003494FF080520A607047945E02206F
:1029040004ED00E00E4B9A6A9A6A9A6A920708D517
:102914005A6B9A6A120604D518B19A6A22F0800298
:102924009A620020064B9A6A9A6A9A6AD20658BF3B
:102934009A6A9A6A42F0FF029A620870704700BF6E
:1029440000ED00E00D4B9A6A9A6A9A6A920508D5DE
:102954009A6B9A6A120404D518B19A6A22F4004256
:102964009A620020054B9A6A9A6AD20558BF9A6AFD
:102974009A6A42F47F429A620870704700ED00E060
:10298400094B9A6A9A6A986A9A6A9A6A9A6A9A6AD5
:102994009A6A10F480106FEA02426FEA124218BF7A
:1029A40002209A62704700BF00ED00E070B5364B1C
:1029B4000E465B6800258AB0C3F3080385F31188CB
:1029C400BFF36F8F02F07F41B1F17F4F11D102F05D
:1029D4000C0108290DD0110701D406460125002257
:1029E400033B8DF80720032B47D8DFE803F0043EB0
:1029F400423B2E46F3E7244BDA6A92073DD4DC6A65
:102A040014F0804408D028331B78EBB101200DF179
:102A14000701FFF777FF04469DF8073093B920229A
:102A2400314602A810F07DFD099B45B3C3F30802AB
:102A340022B96FEA53236FEA43230993204602A97C
:102A440010F0E4FC0AB070BD104B1B782BB10120D0
:102A54000DF10701FFF776FFDDE70D4B188884B20F
:102A6400002CD9D0FFF78CFFD5E700200DF107012A
:102A7400CFE700200DF10701ECE70024CCE723F4B5
:102A8400FF7323F00103D8E700ED00E029ED00E037
:102A94002AED00E0044B5A6942F010025A615A6967
:102AA40042F480625A61704700ED00E0BFF34F8F3B
:102AB4000549064BCA6802F4E0621343CB60BFF3D6
:102AC4004F8F00BFFDE700BF00ED00E00400FA05F2
:102AD400002320210348C2180133452B82F8001338
:102AE400F9D1704700E100E008B50E4B9B688342C2
:102AF40007D1EFF3058393B10B4A536843F0805336
:102B040053600EF013F94FF02003EFF3118083F3B9
:102B14001188BFF36F8FBDE808401AF012B90EF0A8
:102B2400FDFB00BF945E022000ED00E01FB5094CE0
:102B3400094A23460121094800F002F900230393BE
:102B4400074B0121E41A01A80193029400F002F951
:102B540004B010BD0000072000000020BCE3010009
:102B6400B809002010B50B680C7A23F01F0204F09A
:102B74001F031A43CB68640923F01F03044943EA83
:102B8400440343F001038860CA600B6110BD00BFB9
:102B940090ED00E02DE9F04F8846144606464FF0CC
:102BA40000094A4D85B0C14505DA7768BFB31F2FC8
:102BB40005D86FF01504204605B0BDE8F08FFB067C
:102BC400F7D1D6F800A01AF01F0FF2D1504610F03A
:102BD40047FC834607EB0A00013810F041FC8345AB
:102BE400E7D11BF1160FE4D0631E5B45E1DBC5F8AA
:102BF40008B0E968C5F808B02F6921F01F01D6E9CB
:102C040000321A44994247F01F0702F1FF3A1CD1DF
:102C1400574508D131465FFA8BF010F004FC09F1F6
:102C240001090C36BFE73146C5F808B0EB6822F05D
:102C34001F0203F01F031A43EA60E0B210F0F3FB33
:102C440010F1160FB5D0441CE9E7013B5745E0B23B
:102C540023F01F03C5F808B006D12A69314602F0F3
:102C64001F0213432B61E9E7296901F01F010B439C
:102C74002B61314610F0D7FB10F1160F99D0C5F82F
:102C840008B0EA689DF80830013F62F304038DF848
:102C940008302B699DF808205B0863F347128DF810
:102CA4000820D6E900321344009323F01F033B4469
:102CB400441CA3EB0A0AE0B22AF01F03072803937B
:102CC4003FF677AF6946FFF74DFFBCE790ED00E0B4
:102CD4000522034B5A60BFF34F8FBFF36F8F7047CA
:102CE40090ED00E0BFF35F8F0022014B5A60704704
:102CF40090ED00E038B50E4C2568082D14D8FFF788
:102D0400F1FF00200B4B0C4A1A63854205D10B4B93
:102D14001D70FFF7DDFF002038BD616801EB001175
:102D2400FFF720FF0130F0E74FF0FF30F4E700BF7A
:102D3400C8E3010090ED00E0AAFF44000E9F0220CA
:102D440010B5034C2278FFF725FF207010BD00BF9B
:102D54000E9F02202DE9F74F264D8A4606464FF076
:102D64000008AB46244FD0451BDAD6F80490B9F1DD
:102D7400000F39D031680846019110F071FB0199B8
:102D8400044609EB0100013810F06AFB84424FF05D
:102D940014021A4B08D06FF0150302FB08F84BF825
:102DA400083003B0BDE8F08F14F1160F2C60F8D092
:102DB4001978A142F5DD02FB08B0BC60BC60FC6878
:102DC40000F10801007B64F30400087138690C7990
:102DD400400860F347140C71F96821F01F01696021
:102DE400396921F01F01296108F1010814350C36F5
:102DF400B9E700BFDC19002090ED00E00E9F02202F
:102E0400014B1860704700BFD00200200EB40FB50C
:102E14006FF0004105AB53F8042B02900391064870
:102E240002A90193FEF7A0F80022029B1A7004B0D5
:102E34005DF804EB03B07047C935010070B50D4669
:102E440088B004AE00220023314624480DF052FC21
:102E5400234C00282FD196E80F0084E80F0009F0D6
:102E640017F8C06A69468368DB6998479DF80D6066
:102E7400B4F90030B4F90200BDF80020BDF8021026
:102E840016F0FD0F07BF101ACB1A081AD31A0CBF7D
:102E9400208020801BB2012E638005D1B4F900206C
:102EA4002380891A618006E0022E0FD12088CB1A74
:102EB400121A2280638094E80F0085E80F00074B04
:102EC400186A003818BF012008B070BD032EF2D173
:102ED400D31AB4F900102380E4E700BF38080020B7
:102EE400145A02201FB50020ADF800200390CDE94C
:102EF4000100ADF802108DF80E300022002369465F
:102F040002480DF0A3FB05B05DF804FB380800206F
:102F140030B595B02E480DF00BFA044600284ED07B
:102F240006F054F908A808F095FFA3682046139406
:102F34006946DB699847BDF800302648B3F5A07FA1
:102F440098BFADF82030BDF802308CBF6FF022047A
:102F54000024F02B8CBF6FF02204ADF82230002245
:102F64004FF440431C49099017F088F924BB08A882
:102F740000F03AF8044628BB08A808F0EBFF20B399
:102F840016480DF0D5F90546B0B1836814491B689D
:102F94009847002810DB684609F044F801238DF8AF
:102FA4000030104B6846019309F04EF820B1AB682D
:102FB4009B680BB128469847204615B030BD6FF08A
:102FC4001204F9E76FF02204F6E74FF0FF34F3E759
:102FD4004F550200F0590220F0190020ADB70B0044
:102FE400E92E0000412E00001FB50446C06A694660
:102FF4008368DB6998479DF80C30082B0AD86BB1BD
:10300400013B0022072B09D8DFE803F0162308232D
:103014000808080F102B15D0202B13D000236FF0B5
:103024002200C4E90333636104E00D4B6261C4E927
:103034000332002004B010BD0A4BC4E903320A4B2A
:103044006361F6E70020094B2061E360084B63618C
:10305400F0E7084BE360084B2361084BF0E700BF3F
:1030640077380100A3370100F1370100313701003F
:103074007D370100E9350100F936010063360100AE
:103084004FF08053094A0020C2F80432C2F80032DB
:1030940042F8D43C42F8D83C1022054BC3F84024F3
:1030A4004FF05023C3F81406704700BF0028845023
:1030B40000300050F0B402780446012A0B4616D0C2
:1030C400022A2CD08AB90D46184A02F110072E465E
:1030D40010685168083203C6BA423546F7D11278EF
:1030E400327062885A73120A9A73F0BC70470D46A4
:1030F4000E4A02F110072E4610685168083203C6C2
:10310400BA423546F7D1127832706268C2F30721A9
:103114005A73120CDA73120A99731A74E5E70146AA
:10312400F0BC1122184610F0FCB900BFC3B70B0065
:10313400012838B505460CBF0648074812F06EF959
:10314400044620B10121083012F087F92575204684
:1031540038BD00BF68090020A008002002460B46C5
:1031640070B54FF02001EFF3118581F31188BFF39F
:103174006F8F00200B49D1F8F840C1F8F80085F3AF
:103184001188BFF36F8F24B9BDE870400120FFF7A9
:10319400CFBF0121A081217504F1080012F05DF96F
:1031A400204670BD0000002070B504460F2C0D466B
:1031B4001046194605D80D2C12D9BDE87040FFF70A
:1031C400CDBF132C0CD10B4812F028F9044628B1BA
:1031D4000121083012F041F901232375204670BD06
:1031E40002460B460DB10448EEE70120BDE87040ED
:1031F400FFF79EBF90090020F0080020F8B50646AE
:103204000025094FFB79ECB2A34202D86FF0010408
:1032140008E0C4EBC4013046394410F0ECFB01353E
:103224000028EFD12046F8BD00000020436837B5E0
:103234000446580502D5002003B030BD22690AB106
:10324400D907F8D51A4D2078EB798342F3D90023B6
:10325400C0EBC000694628440093CDF8033010F059
:10326400CAFB0028E7D06068C20706D495F834305A
:10327400082B02D8A3689F2BDDD910F0300F02D0A1
:103284002369002BD7D0C30601D4236943B9D4E9F9
:1032940002239A42CFD81F2ACDD9B3F5804FCAD87A
:1032A40000F46030B0F5603018BF0120C4E700BFFF
:1032B4000000002010B501210446083012F034F952
:1032C4002146BDE810400723014A007810F069BB8D
:1032D40030E4010013B50C4C0146052294F8330088
:1032E40001F018FE70B9094B694618689A889B79F1
:1032F4000090ADF8042094F8330004228DF80630D1
:1033040001F008FE02B010BD00000020B0D701009B
:1033140030B5134DC0EBC0000C4685B0054471B107
:103324000023694620460093CDF8033010F063FB78
:1033340028B12146284610F05BFB05B030BD02A839
:1033440010F00FFB02A8FFF759FF0028F7DA284610
:1033540002A910F04DFB002CEFD029462046EAE7E5
:10336400000000202DE9F8433B4FDFF800813B4E7D
:103374004FF0FF334FF0FF32384612F054F8037D1C
:103384000446012B39D0032B20D18389032B0CD87D
:1033940040F2AC433246324932480EF0DDFC404044
:1033A40080F311884FF0030002DF042104F10800C8
:1033B40012F0BAF8FF224388B0F800906275A2892F
:1033C400C9F30B009A42E08203D0204603F074FA5A
:1033D40010E001F0CBFC05460028F6D001F0E4FE35
:1033E400214660754FEA1932284610F0D3FD28466D
:1033F40010F04BFE0DF0FAFDBAE78389012B0CD8CF
:1034040041F2FB333246164916480EF0A5FC404003
:1034140080F311884FF0030002DF022104F1080059
:1034240012F082F80546007810F0A9FA83070CD44C
:1034340041F2FF3332460C490A480EF08DFC4040FD
:1034440080F311884FF0030002DF04234246214633
:10345400287810F0A6FAB8E7FC000020D4B70B00D7
:1034640008B80B0021B80B003EB80B0078E401004B
:103474002DE9F0470025A8468768DFF8C4903B781B
:103484009D4201DBBDE8F08707EB8503B3F801003B
:10349400B3F8036001F06AFC044650B300F1280A53
:1034A40026B34FF02003EFF3118283F31188BFF3A7
:1034B4006F8FE3696BB1013BE36182F31188BFF362
:1034C4006F8F204601F02CFB013E0DF005FEB6B2D5
:1034D400E6E763692BB1A16918688B42606108BF94
:1034E400A06182F31188BFF36F8F23B9204610F0D7
:1034F400CCFD0135C3E74FF02002EFF3118182F3D5
:103504001188BFF36F8FDA68E261C3F80080626AE2
:10351400C3F80C808AB9C4E9083381F31188BFF376
:103524006F8F012104F1300010F09CFAC307C8D456
:103534005146484619F08BFBC3E713606362ECE71E
:1035440070110020F8B5064688790C4603F0F8F8A7
:10355400194B83422ED1204603F0FAF8204603F09B
:10356400F7F80C27154D07FB00535B685BB156B9A0
:10357400204603F0EDF807FB005043681A7AD3E9BC
:10358400000110F085FA204603F0E2F80C2707FB4F
:103594000050836873B1204603F0DAF878432E5460
:1035A400204603F0D5F807FB0055A868BDE8F840AD
:1035B4000DF092BDF8BD00BF40090020245A02203E
:1035C40038B503210446083011F0AEFFA36805782E
:1035D40021461878FFF7B6FF25B1BDE83840024808
:1035E4000DF07ABD38BD00BFE0000020F0B5284BD7
:1035F40005460F4685B0017803F1280010F0F5F96F
:1036040010F0400F1A4608D003F1280010F0EDF92D
:10361400C00502D51B7E8B4231D12E4616F8093BDC
:10362400694682F83330002330460093CDF80330E6
:1036340010F0E1F90446287864B1314610F055FDE4
:103644000446F8B92878314601F064FB0546E0B138
:1036540005210EE06FF0FF0302934FF6FF7302A9FA
:10366400ADF80C308DF80E3001F054FB054660B116
:10367400042101F087FB3D60204605B0F0BD6FF0EA
:103684002204F9E76FF01504F6E76FF00B04F3E793
:103694000000002038B504210446083011F044FF2E
:1036A400457821460078FFF74DFF25B1BDE8384045
:1036B40001480DF011BD38BDE00000202DE9F84FA0
:1036C4004FF0FF324FF0FF33054616480E4611F017
:1036D400A5FE0027044600F1080B0121584611F00D
:1036E400BCFE2046277503F033F84FF00C0ADFF8D0
:1036F40038800AFB00804580204603F029F80AFB45
:1037040000808760204603F023F80AFB0080032131
:103714004760584611F0D8FE867005802046BDE803
:10372400F88F00BF40090020245A0220F0B5154646
:103734000C4687B021B9FFF7C1FF0446002848D0E2
:1037440001220021684619F0CEFB204603F000F860
:103754000C23214E03FB0060C0F808D0204611F072
:103764008DFE21461D4811F07CFE4FF4A02200235B
:1037740068460DF0D7FC074680B140F24D13184A55
:10378400184919480EF0E8FA394618480EF0E4FAD8
:10379400404080F311884FF0030002DF204602F01E
:1037A400D7FF0C234343F65C56B1204603F084F85C
:1037B400092E0CBF6FF03C006FF0040007B0F0BDA1
:1037C40015B130462C60F9E7204603F075F8284619
:1037D400F4E76FF03600F1E7245A022014010020C8
:1037E400D4B70B006CB80B0021B80B0075B80B00F4
:1037F40070B5154E062206F12D0105460FF081FE27
:103804000446E0B1062142F20500FFF757FF0446E3
:10381400B8B106222946083011F05CFE2146002288
:1038240042F20500FFF782FF044640B9062229460A
:1038340006F12D000FF075FE012386F82C3020468A
:1038440070BD6FF03604FAE7000000202DE9F7435D
:10385400044611F001000E4690461D4627D0274F1E
:103864002AB1880603D597F89830590642D5C4EB97
:10387400C403FB5C4FEAC409012B08D0A9EB040480
:103884003B5DB8F1000F0DD100202B7007E007203D
:1038940010FB04303844FFF7ABFF0028EED003B030
:1038A400BDE8F083B20648BF43F00203ECE74B07E0
:1038B40010D5124EC4EBC403F35CE700012B05D111
:1038C400072010FB04303044FFF792FF3C1B335DAC
:1038D4002B70E4E70621684601F060F840B99DF8D2
:1038E4000530684603F03F038DF80530FFF780FF8D
:1038F4000123EDE76FF02200D1E700BF00000020B4
:103904002DE9F04F87B09DF8488006460C461746CF
:103914000021102202A81D46DDF840909DF844A025
:103924000FF02AFEB8F1000F0ED0B4BB002D3FD12A
:10393400DFF8B0B058460FF0B9FD09238DF8010047
:103944008DF80030CDF804B0CDE90247B8F1000F8E
:1039540030D0BAF1000F2DD101230222CDF810D0BE
:10396400059342F2080002A910F0FAF8044638B9A7
:10397400BAF1000F20D1042106F1100010F072F802
:10398400204607B0BDE8F08F14F83320083A012A26
:1039940025D901339F42F7D1C8E70023FAE715F888
:1039A4003320083A012A1AD901339945F7D1BFE7E0
:1039B4000023FAE70122D4E70122CDE90259B8F144
:1039C400000F03D005920222CDF810D042F2090074
:1039D40002A910F0C5F80028CDD00446D0E76FF056
:1039E4001504CDE720EC01007FB506460D4642F2F2
:1039F4000A000121FFF762FE0446E8B10830CDB1A8
:103A0400012111F070FD0623204610360293019621
:103A14008DF80C5002F09CFE0C22094B214602FB4F
:103A2400003001AB4360002242F20A00FFF77EFE41
:103A340004B070BD2946E4E76FF03600F8E700BF34
:103A4400245A0220024BD3F82C311B69184700BFBB
:103A54000000002038B505460C4619B9FFF72EFEC4
:103A6400044698B140F635439D4209D12046FFF7FC
:103A7400E9FF054610B1204602F01EFF284638BD76
:103A84002146044811F0EDFC0025F7E76FF03605F8
:103A9400F4E700BF14010020F8B50446C58A807914
:103AA40002F04EFE214619F0DDF81B4B93F84E3020
:103AB4009B0614D5607D01F083FB034678B1827ABE
:103AC400012A02D0073A012A0AD8184610F0DDFA72
:103AD400052140F63540FFF7F1FD044620B9F8BD55
:103AE400BDE8F84010F0D1BA00F1080701213846CA
:103AF40011F0EAFC012604210670384611F0E4FCBA
:103B0400002305808670C3702146BDE8F84040F666
:103B14003540FFF79FBF00BF000000207FB5837AC8
:103B24000446072B1ED1061D30460FF05EFF8304AA
:103B34001AD4E37823B1254B93F898301D0713D595
:103B4400022142F21600FFF7B9FD054660B10221D9
:103B5400083011F0B9FC23882946038042F216008C
:103B6400FFF778FF04B070BD30460FF03EFF10F44D
:103B7400805F164DC0F300310FD195F89930D80706
:103B84000BD5022320461A46009110F0A2F820B962
:103B9400802130460FF066FFE4E795F898309A06E6
:103BA400E0D5D5F82C319B689B07DBD50DF10E01D0
:103BB40003A80FF0BDFF0028D4D12046BDF80E2085
:103BC400BDF80C1010F068F8CCE700BF000000202E
:103BD4002DE9F84FDFF80481DFF814A1D8F80C3090
:103BE4003D486FF31033C8F80C3001F05BF8451C06
:103BF4004FF0FF324FF0FF33294638480DF012FEE4
:103C040060B141F271435246354936480EF0A4F88A
:103C1400404080F311884FF0030002DFDFF8D490B6
:103C24002E4EA9F58A77A9F1340B15B90DF0DEF9FA
:103C3400D4E7F368C3F30433042B42D1337B002B62
:103C440042D100220023484611F0EDFB044660B93E
:103C540041F20E435246244922480EF07DF840407A
:103C640080F311884FF0030002DF4FF0FF324FF072
:103C7400FF3358460DF056FAD7F8F80020B102F099
:103C84001BFE0023C7F8F830204611F0F7FBC7F8F5
:103C9400F8002046FFF7D6FE98B114480DF01CFA40
:103CA400204602F055FD21461F20FFF74BFCD7F8B4
:103CB400F80002F001FE00232046C7F8F83002F0B5
:103CC400FBFD1436013DB0E7012BFAD130693438DD
:103CD40001F006FAF5E700BFE8020020D402002054
:103CE4006CB80B0021B80B0095B80B00E000002065
:103CF400D4B70B00140100202DE9F041044600F173
:103D04000806304611F020FCB4F80C800546B8F1E2
:103D1400010F0CD841F6AE031B4A1C491C480EF097
:103D24001BF8404080F311884FF0030002DF0221AA
:103D3400304611F0F9FB074600780FF020FEC20769
:103D440006460CD441F6B2030F4A124910480EF04D
:103D540003F8404080F311884FF0030002DF05238D
:103D640021460D4A38780FF01CFEB30707D52069A9
:103D7400A4F80C8010FA85F5A560BDE8F081204612
:103D8400BDE8F04102F098BDD4B70B0008B80B00B1
:103D940021B80B0099B80B0098E4010038B5037DF5
:103DA4000546012B07D0032B13D10C48294611F0EB
:103DB40058FB00200CE0836818780FF0E0FDC3077F
:103DC400044602D52846FFF797FF14F00200ECD111
:103DD40038BD02F071FD6FF01500F9E7FC0000201A
:103DE400084A0346D2F82C0130B9D96839B11969A7
:103DF40029B1C2F82C3170476FF0440070476FF05E
:103E04001500704700000020022101480FF02ABE6F
:103E1400940000200048704720EC010037B50C46A0
:103E2400054618B9ECB16FF0150417E00023694694
:103E34000093CDF803300FF0DEFD0028F2D02B788C
:103E4400012BF0D1AB7903F0C003C02BEBD1284692
:103E5400FFF7D4F90028E5DB6FF04404204603B0F3
:103E640030BD074BDC79012C06D0621C2946204664
:103E7400DA71FFF74DFAF1E76FF00B04EEE700BFDC
:103E84000000002070B586B0002141F2090001AAAB
:103E9400FFF74CFC1A4E044618B10023F37106B028
:103EA40070BD019B06229D6804A901350490ADF8FC
:103EB400140028460FF025FB18B9019802F0FCFC09
:103EC400EBE7104B062218689B88029002A928464B
:103ED400ADF80C300FF015FB0028EED02946062271
:103EE4000DF111000FF01DFB01988DF8104002F048
:103EF400E3FC0123204604A9F371FFF709FACEE796
:103F040000000020B7D701002DE9F341154B074607
:103F140093F886400E4614F0010415D000214FF6A4
:103F2400094001AAFFF702FC0546C8B94FF016087C
:103F3400019B9B685C78B44228BF34469E1CA54212
:103F440006DB019802F0B8FC204602B0BDE8F0811F
:103F540008FB0570162231460FF0E3FA0135EEE74F
:103F64000024F1E700000020F0B5144D89B0EC798D
:103F7400F4B9012102A8FFF7C7FFE871C0B1162701
:103F84000FE002AB07FB063106220DF101000FF032
:103F9400C8FA0123694630468DF80030FFF7B8F9B6
:103FA4000134EB79E6B2B342EBD8002009B0F0BD9E
:103FB40000210846FFF732FFF8E700BF00000020A9
:103FC400F7B55B4DD5F82C31996811F001011CD17E
:103FD40040F6034001AAFFF7A9FB0446002840F07D
:103FE400A380019B9B681B7863B905F19403184671
:103FF4000FF0FBFC00F00500D3E8EF2FC3E8E10F5E
:104004000029F9D1019802F057FC002141F2030084
:1040140001AAFFF78BFB0446002840F08580019B32
:1040240008229968434801310FF07BFA019802F0A5
:1040340043FC214641F2010001AAFFF777FB044645
:10404400002871D1019883685A7885F83420D9788A
:104054009A7842EA0122EA861A7985F83520197A93
:10406400DA7942EA01222A875A799B7942EA0323C0
:104074006B8702F021FC214641F2020001AAFFF7FE
:1040840055FB044600284FD1019B402299682A48D9
:1040940001310FF046FA019802F00EFC00F056FCD4
:1040A4000446002840D195F84E309F0606D495F872
:1040B40040305E0642D46FF0120435E0072140F62A
:1040C4003340FFF7FBFA074610B96FF036042BE0D4
:1040D4000721083011F0F8F92146072206460FF0AF
:1040E4004BFA1B233370062322467470347139460D
:1040F40040F63340F370FFF719FB0446A0B90121E1
:1041040040F63140FFF7DAFA06460028DDD00121F7
:10411400083011F0E8F92246314640F63140FFF705
:1041240005FB04460028C2D0204603B0F0BD00BF02
:10413400000000203C00002044000020002142F246
:10414400030001AAFFF7F2FA04460028ECD1019B10
:10415400082299689E4801310FF0E3F9019802F0B2
:10416400ABFB214642F2020001AAFFF7DFFA044644
:104174000028D9D1019B9B68B3F8012091B2A5F81E
:10418400C42021B1DA789348114618F0ACFE0198A6
:1041940002F092FB95F8406016F0200600F0FD80D6
:1041A40095F860301C0711D5002142F21C0001AAC9
:1041B400FFF7BCFA04460028B6D10198836853F887
:1041C400012F5B68C5E9282302F076FB95F8983047
:1041D400980623D568460DF102010FF0A9FC0446A8
:1041E4000028A1D1042142F22400FFF767FA064611
:1041F40000283FF46AAF0421083011F065F9BDF8D6
:10420400003022460380BDF802303146438042F23A
:104214002400FFF78BFA0446002885D1082142F2D6
:104224000100FFF74BFA044600283FF44EAF082183
:10423400084411F049F995F8982012F0020F14BFC0
:104244002F230F23910695F8992048BF43F040038C
:1042540012F0090F4FF0000218BF43F4006303701B
:10426400C3F30723214643708270C2700271427106
:104274008271C27142F20100FFF758FA0446002825
:104284007FF452AF95F840309A061ED4B5F8C410A6
:10429400D9B941F2050001AAFFF748FA04460028FB
:1042A4007FF442AFB5F8C43063B9019B9B685A7878
:1042B400997842EA0122A5F8C4209A884548114613
:1042C40018F011FE019802F0F7FA082140F60140B7
:1042D400FFF7F4F9044600283FF4F7AE0821084438
:1042E40011F0F2F810230370882300224370022691
:1042F400202321468270C670027142718271C3719B
:1043040040F60140FFF712FA044600287FF40CAF90
:10431400014601AA4FF60140FFF708FA40BB019895
:1043240002F0CAFA21464FF6024001AAFFF7FEF94D
:10433400F0B9019B32469968274801310FF0F1F832
:10434400019802F0B9FA95F885305B0710D521463B
:104354004FF6034001AAFFF7E9F948B90122019B8E
:104364001E48996811440FF0DCF8019802F0A4FA91
:10437400EB79002B7FF4D8AEFFF784FDEB79002BAB
:104384007FF4D2AEFFF7F0FD044600287FF4CCAEF4
:104394001348FFF72DFA0446C6E6022140F66D40A5
:1043A400FFF78CF9044600283FF48FAE0221083051
:1043B40011F08AF80123214603704670324640F614
:1043C4006D40FFF7B3F9044600283FF4E9AEABE6CD
:1043D40098000020C80000208500002084000020F0
:1043E400010000202DE97043324D0646D5F82C31EA
:1043F40088B0002B57D0012105F194000FF032FB57
:1044040010F0010452D12C4B4FF000084FF000097A
:104414001E606FF008034FF48062CDE90243CDE9DA
:104424000689CDE90044254B2549049425480CF020
:10443400EBFE2549234818F070FD6FF007034FF495
:104444008062CDE90243CDE90689CDE900441F4BE2
:104454001F4904941F480CF0D7FE1F491D4818F04B
:104464005CFDD5F82C31DB689847044650B96EB929
:10447400FFF7A6FD044628B900F0AAFE044608B9D1
:10448400FFF7C2FC204608B0BDE87083012105F1A6
:1044940090000FF0E7FAC307F4D4104805F188013F
:1044A40018F0D5FBEEE76FF01204EBE76FF044046D
:1044B400E8E700BF000000203C5A0220D53B000082
:1044C40050BC0220980B0020B2B80B0069330000E6
:1044D40050B80220100B0020B8B80B007011002057
:1044E40010B5FFF76DFD044628B900F071FE0446CF
:1044F40008B9FFF789FC044B1B681BB12046BDE8D3
:104504001040184710BD00BF3C5A02202DE9F04F5F
:104514009A4600230D698FB0B5EB030B06467E481F
:1045240018BF4FF0010B0C46914607930FF05DFA4C
:10453400870740F1E3800846FEF778FE0746002827
:1045440000F0DF8006F1100840460FF04EFAC0F389
:104554008011400600F1D8800F220AA805910FF0BF
:104564000BF8A3686068ADF82830E368ADF82A302A
:104574000FF02CFA3278237805999A428DF8350099
:104584008DF8361004D06FF4805163480FF075FA3B
:104594002078624B307083F833005A4661680DF11D
:1045A4002D03FFF753F98346002866D106F109006D
:1045B400002D3FD021690FF01BFA6068C10741D577
:1045C400002D3CD010F0100F14BF042301232169E7
:1045D4000DF12E008DF82C300FF00AFA0F2142F263
:1045E4000600FFF76BF88346002800F090800F2246
:1045F4000AA9083010F06EFF0022594642F2060064
:10460400FFF794F8002840F0858035B36368DA0733
:1046140037D401213046FFF7E7F983460798BBF109
:10462400000F65D048B3002100F0ACFB07980FF0F1
:104634002CFD22E0089508A9CDF82350BBE78DF89E
:104644002C50CBE7189B33B9C0F3C007C7F1030361
:104654008DF82C30C2E70127F8E763685246C3F3AC
:10466400C003CDE90173199B494600933046189B5A
:10467400FFF746F983460028C8D058460FB0BDE876
:10468400F08F304607A9FEF7B1FF83460028C0D05B
:1046940010F10C0FF1D1002DEFD163689B07ECD41E
:1046A400606880F00200C0F3400B0BF001020C21A3
:1046B40040460FF0EDF9626807214046C2F3C0029C
:1046C4000FF0E6F962680821404602F001020FF09B
:1046D400DFF93A46092140460FF0DAF962680B2106
:1046E4004046C2F380020FF0D3F94FF0000BC4E749
:1046F40008B10FF0CAFC002DD7D1D1E76FF00A0B37
:10470400BBE76FF0150BB8E76FF0440BB5E76FF03C
:10471400360BB2E78346B0E7940000200000002087
:1047240013B5049CCDE9003413460A4601460248F9
:10473400FFF7ECFE02B010BD1800002013B51848B6
:104744000FF053F9C10429D515480FF04EF942066C
:10475400C0F3801422D412480FF047F9C3051DD5C5
:10476400104801A9FEF742FFC0B901210D48FFF727
:104774003BF950B12146019800F004FB6FF48051DD
:1047840007480FF07AF9C0F3003401980FF07DFC6C
:1047940024B14FF4805102480FF064F902B010BD07
:1047A4002800002018000020F0B50578044685B0E4
:1047B4009DB13C2D40D16FF0400143480FF05DF9AD
:1047C4000020FEF787FD0446B0B34572002100F0D7
:1047D400D9FA20460FF059FC2EE00379B0F80160B5
:1047E400023B051D012B2946B7B202A826D80FF0BB
:1047F400FFF89DF808300622023B04F111010DF187
:1048040001008DF808300EF08CFE01238DF8003085
:10481400E378012B0CD102A8FEF75CFDE378054692
:10482400012B04D16FF0400127480FF026F965B938
:104834001F2138460FF0F5F905B0F0BD0FF0D8F898
:10484400294668460FF0D4F8E2E7284602A920F882
:10485400886B0FF0CDF8227EE37D43EA0223A5F8AE
:104864009E30A27E637E43EA0223A5F8A430E37E51
:10487400227F43EA0223A5F8A630E3780024012B23
:10488400EB706C7216D1694605F18F000FF0B0F829
:10489400297A0E4EC1EBC101314405F196000FF0A7
:1048A400A7F82246D6F8A41001F04003134301D020
:1048B400FFF744FF0721284600F064FA2846FFF773
:1048C4002DF9284686E700BF2800002000000020BC
:1048D4002DE9304800258CB0002142F2180002AACC
:1048E400FEF724FF044650BB029B0822996804ABE0
:1048F40003EBC50001310EF014FE0135029801F0FE
:10490400DBFF042DE8D118F0BDFB4FF47A75A0FB52
:1049140005BC05FB01CC4FEADB3242EA4C424FEACC
:10492400DC33CDE9022308232022009306486B449C
:1049340004A90EF003FD002808BF6FF0040420460C
:104944000CB0BDE8308800BF200C002013B5114B1B
:1049540093F95F30002B16DA002142F2180001AA05
:10496400FEF7E4FE68B9019B082299680A48013100
:104974000EF0C4FC0446019801F09EFF34B1FFF729
:10498400A7FF02B010BD6FF02200FAE76FF0040039
:10499400F7E700BF00000020200C002038B50A4AC9
:1049A40004460D460EF0E3FC431C07D1FFF790FFCD
:1049B40048B929462046044A0EF0D9FC012814BF00
:1049C4006FF00400002038BD200C002000230146B5
:1049D400C0E90133C360014818F039B988080020E0
:1049E40038B50446084B1D68617A2DB951B9204683
:1049F400BDE8384001F034BE2B680BB1204698471F
:104A04002D69F1E738BD00BF405A02202DE9F84373
:104A140004460E4690461F464D694FF0FF334FF053
:104A2400FF323E480CF07EFBA37A072B46D14FF0B1
:104A34002003EFF3118283F31188BFF36F8F002DEE
:104A44004ED000232B60A369002B46D1C4E9055541
:104A540082F31188BFF36F8F042106F1080010F070
:104A64004AFD238808F0FD0843EA0838B389A0F812
:104A74000080043B4380022330463375FEF7E2FF97
:104A8400002849D04FF02003EFF3118183F31188FC
:104A9400BFF36F8F002D39D00022636953B19D425B
:104AA40031D12B684ABBA2696361954200D1A361ED
:104AB40000232B6081F31188BFF36F8F17480CF02C
:104AC4000BFB15B12846FFF781FF1FB1304601F0FB
:104AD400F3FE00273846BDE8F8831D60A561B7E7FB
:104AE400A36933B103F10C09DB680133C9F8003061
:104AF400AEE7E36904F11C09F7E71360A3699D427B
:104B040008BFA261D4E71A461B68C7E7D9F800308A
:104B1400013BC9F80030CDE70127DBE7C8000020DE
:104B240000487047C800002070B5031D0446D3E850
:104B3400AF2F920515D5B0F89E20B0F8A010914281
:104B44000FD8B0F8A21091420BD3D0E929129142A8
:104B540007D1D3E8EF2F22F40072C3E8E12F002934
:104B6400F7D1084B1D6805B970BDEE683EB120460B
:104B7400B4F8A630B4F8A420B4F89E10B0472D6958
:104B8400F1E700BF405A0220F8B5074608460D4633
:104B94000FF062F8044610B900242046F8BD094B12
:104BA4001E68002EF9D0B3680BB93669F9E72946B7
:104BB400384698470028EFD028460FF04DF80028D3
:104BC400F3D1E9E7405A0220024B1A6818600261E7
:104BD400704700BF405A022070B5044600F1340605
:104BE40000220023304610F01EFC054658B920462A
:104BF4000FF0C7F904F158010022BDE8704000230A
:104C040005480CF0C5BB686908B1FFF7DFFE28460C
:104C140001F052FEE4E700BF701100202DE9F041DD
:104C24009846837A0646072B0D46174605D0084654
:104C340001F042FE6FF0380015E062B30CF046FA62
:104C4400164B8342164807BF002200234FF0FF3261
:104C54004FF0FF330BF06EFE044630B9284601F0E6
:104C64002BFE6FF03600BDE8F081B37A072B06D037
:104C7400284601F021FE2046FFF7A8FEDAE70023CC
:104C8400C0E90178C360686106F13400294610F078
:104C9400E8FB0020E7E74A61F6E700BF881100203F
:104CA4008808002038B500220446174B01219A6079
:104CB40018F072FB154B04F1140003F1B802D2E8AA
:104CC400AF2F19460AB9012038BD9A7A7AB91A1D4C
:104CD400D2E8EF5F25F0400CC2E8EECFBEF1000F42
:104CE400F6D16A0603D51846FFF776FFEBE78B7A11
:104CF400072BE8D1064B0022042118F04DFB0123B9
:104D0400022084F82030DFE710030020580D002033
:104D14008C0D002070B506460D46104801210FF099
:104D24000CF90446B8B13022002158300EF024FCAE
:104D34000B4B0C4AE36500232946C4E90B23A36209
:104D44000722267204F188000EF0EBFB0123A37006
:104D5400054BC4F8A030204670BD00BF580D00209C
:104D6400BD4F0000393F0100180028000246012110
:104D740008B503480FF097F9002838BF002008BD94
:104D8400580D002070B5857A04468D4200F09D8050
:104D940081720DB90FF065F9A37A012B16D10026A3
:104DA4004A4D4FF02003EFF3118283F31188BFF3D0
:104DB4006F8FE369002B69D0013BE36182F31188B3
:104DC400BFF36F8F28460CF087F9EAE7072B09D069
:104DD400002B7AD1A378042B25D12046BDE870405E
:104DE4000FF053B9A378042B6FD004F1340017F0FB
:104DF40022FF002136480CF071FD00232046C4E94F
:104E0400133300F013FA2046FFF7EAFDE378012B91
:104E14005BD104F158014FF42032BDE87040002307
:104E24002C480CF0B5BA013D052D4ED801A353F81A
:104E340025F000BF514E0000834E0000DF4D0000FE
:104E4400DF4D0000834E0000834E000020460FF02B
:104E54004EF8A378012B03D104F1580018F0B9F8E7
:104E64000434D4E8EF3F43F04003C4E8E23F002AAF
:104E7400F7D1BDE87040002115480CF02FBD637ACE
:104E8400002BAAD02046FFF7ABFDA6E7606928B146
:104E9400A16903688842636108BFA36182F3118832
:104EA400BFF36F8F88B14FF02002EFF3118382F3C9
:104EB4001188BFF36F8FC268E261C66083F3118803
:104EC400BFF36F8FFFF782FD7CE770BDC800002041
:104ED400100300207011002070B505460C480E46E2
:104EE4000FF0BFF8044628B18378012B04D00FF0EB
:104EF400CCF80024204670BD294632460FF091F8C4
:104F040005460028F6D120460FF0BFF82C46F1E7FD
:104F1400580D0020F8B505460F480E4617460FF009
:104F2400A0F80446B0B18378012B03D00FF099F8B0
:104F340000240FE046B1324629460FF072F818B942
:104F440020460FF0A2F8F3E7A37ABB42F8D1237A04
:104F5400AB42F5D12046F8BD580D002038B50446C3
:104F640008460D460EF078FE08B3124B93F89830BD
:104F7400990707D4E37873B129462046BDE8384041
:104F840000F0AAB994F8AC309A07F3D5231DD3E8FE
:104F9400AF3F5B05EED4294620460FF0AEF828B9A2
:104FA400AB88A4F8A830EB88A4F8AA3038BD6FF019
:104FB4001500FBE70000002073B510F84E3C0446D2
:104FC400A0F1580693B930460FF01AF91B4B1D682F
:104FD40025B930460FF059F802B070BD6B681BB1AB
:104FE400304614F84F1C98472D69F1E710F8563CE9
:104FF400012BF1D1A0F15405D5E8EF3F23F4007261
:10500400C5E8E12F0029F7D19B0510D5A36C0093C7
:10501400236D019369463046FFF7A0FFD5E8EF3FC3
:1050240043F48073C5E8E23F002AD5D0F6E76B4627
:10503400034A1068516803C3ECE700BF405A0220DA
:10504400A8D7010038B50D460649002808BF084610
:1050540010F0E4F9044618B1691D083010F0FDF9A8
:10506400204638BDC808002001460148FFF7EABFC2
:10507400180900202DE9F04106464FF0FF334FF0A8
:10508400FF3200200C46FFF7EFFF33780546072B6D
:105094004FF0000605D001F00FFC35462846BDE868
:1050A400F081466100F108070C4E3846B6F8C4801A
:1050B40010F04EFA80450CD2B6F8C46054F8081FBC
:1050C4003246384610F006FA3146204610F024FAEB
:1050D400E4E7384610F03CFA86B2EFE7000000201F
:1050E400F8B5837A054673B9031DD3E8EF2F22F090
:1050F4004001C3E8E41F002CF7D1530603D5BDE8F3
:10510400F840FFF769BD0022002305F1340010F0D8
:105114008AF9044660B940F25F531F4A1F49204888
:105124000CF01AFE404080F311884FF0030002DFB8
:105134001C4FA189B7F8C420914207D8002302224A
:1051440021462846FFF762FC40B1F8BD05F10A0686
:1051540021463046FFF78EFF014620B92046BDE8C0
:10516400F84001F0A9BB012300222846FFF74EFCBA
:105174000028F3D0A289B7F8C4309A4202D8002399
:105184000322DDE721463046FFF774FF014600287D
:10519400E4D001231A46E8E7BEB80B0095B80B002B
:1051A40021B80B0000000020034BC01A034B8011F0
:1051B4005843C0B2704700BF580D0020ABAAAAAA3A
:1051C40010B902480EF04DBF00207047580D002062
:1051D40010B50B490B4817F03AFD0B49094817F075
:1051E40036FD0A49074817F032FD0FF086FC10F02F
:1051F40012F9044608B90FF09DF8204610BD00BF0F
:10520400445A022088080020545A0220645A02207A
:10521400044B186818B9044A5A600B6070476FF061
:105224000B007047180E0020E0E401002DE9F7435D
:105234000546264E264FDFF89C80BE4202D303B0BB
:10524400BDE8F0832846736801A99847002838DB35
:10525400019C33883022A4F84830A4F8543000214B
:1052640004F11000D6F808900EF086F90022C4F874
:10527400148004F14003D3E8EF1FC3E8E02F0028B3
:10528400F9D1A2602A6D04F10803E2B9C5E9133328
:10529400019825604368C4F80C901B6803B19847D3
:1052A400019B4033D3E8EF2F42F00102C3E8E12F22
:1052B4000029F7D1019843689B6913B100F14001BB
:1052C40098470C36B9E713602B65E1E718D701005E
:1052D4003CD70100ED41010073B5154B05461A7822
:1052E4000C46013212F0FF0208BF01221A7012208C
:1052F400082219780EF02AFF0646B0B108210844A6
:1053040010F0E2F822880521028062884280A28897
:105314008280E2880024C2802346324628460094D4
:105324000EF087FF204602B070BD6FF00B00FAE765
:105334000F9F0220024BC1F820310FF029B800BFA3
:1053440077470100024BC1F820310FF021B800BFAC
:1053540063470100024BC1F820310FF019B800BFB8
:10536400A155000007B50838019001A902480BF0C7
:1053740041F903B05DF804FB9C0700202DE9FF41CF
:105384004FF000084FF4205306460D46006802A96A
:10539400144617688DF80880ADF80A300EF08FFABD
:1053A400A0B142F60103306803A98DF80C80ADF872
:1053B4000E300EF084FA48B123691BB15A88AA4210
:1053C40000D25D80012004B0BDE8F08161683068DE
:1053D4000EF075FA10B100232361F3E7E368A068C7
:1053E4001A783AB1B7F85E3081895B1A934201DAD0
:1053F4000020E8E70421083010F066F8094B20612A
:10540400314605804580A268009338460023019404
:105414000FF00EF80028EBDB2069003818BF0120DC
:10542400D1E700BF0B4701002DE9F743D2F8008014
:1054340006468946006851681446D8F808500EF0AC
:105444003EFA074600283ED12846152231460FF081
:1054540028FF0546207548B1E3681B7823B9002569
:10546400284603B0BDE8F0832775F8E7A06810F07C
:1054740009F80221083010F027F8144B2061314656
:10548400A0F80090A268009340462B4601940EF0C9
:10549400CFFF002807DA10F1FF0F32BF0E20404281
:1054A400C0B22075DCE72369002BD8D0A0680EF0C9
:1054B40067FFB8F85E50E3682D1A1878854294BFE8
:1054C40000250125CCE70125CAE700BFA14301005F
:1054D4002DE9F7438B6805461B780C46D22B914681
:1054E4000CD1036818680FF093FF064630B12046CC
:1054F40001F0E2F9304603B0BDE8F08304F108009E
:1055040010F022F8B4F80C800746B9F1000F0AD164
:10551400A36818780EF054FF431EDBB2042B9CBF23
:10552400164A52F823902B682046C5F828911E6825
:105534000FF0A4FFD5F82811114B0246994219D057
:10554400104B994218D0DFF850C00F4B0F486145FB
:1055540018BF034608353046042100950EF069FE55
:1055640006460028C3D02069A4F80C8010FA87F7F7
:10557400A760BFE7064BEDE7064BEBE700E501004C
:105584006347010077470100595300009543010028
:105594004953000039530000A1550000D0F8C4302D
:1055A4003BB100F1E0014FF47022002301480BF0FD
:1055B400EFBE704770110020F7B5002307460E4672
:1055C400002269461F480AF0E3FF044620B16FF049
:1055D4000B04204603B0F0BD01462C2200980DF0C8
:1055E400CBFF009D0022C5E90074C5E90944AC6005
:1055F4000023154801A901940AF0CAFF04460028B3
:10560400E5D101464FF4987201980DF0B5FF019869
:105614000E4BC360C83017F00EFB019800F588707C
:105624000322114617F05FFC019BC033D3E8EF2F30
:10563400C3E8E14F0029F9D1019B43F8085B3360CB
:10564400C7E700BF800700209C070020200300203C
:1056540038B5074A04460D46FFF73AFF30B12946EC
:1056640004F1C800BDE838400FF0FBBE38BD00BFF0
:105674006347010038B50421044600680EF01FFE9C
:1056840050F8085C6B6A1BB905F10C0017F0D3FAEB
:105694006A6A04F59273C4F82421AA6A6B6202B997
:1056A400AB6204F1B803D3E8AF3F1B0758BF17231D
:1056B4004FF030025CBFA4F85630A4F84A30002101
:1056C40004F1D8000DF058FF014BC4F8DC3038BDAC
:1056D400A14B0100F0B5044687B001F108000D4666
:1056E4000FF02AFF2368064600211868AF68AD89C9
:1056F4000FF045FE20B32EB31822002168460DF0AA
:105704003BFF236831461B683046009300238DF825
:105714000830ADF8123001230B4A8DF814306B4673
:105724000397ADF810500EF078FE9DF8143023B9AD
:10573400019911B12046FFF78BFF002007B0F0BD9F
:105744001220FBE70120F9E7754801008B892DE958
:10575400F04104460D46002B56D0012105F1080006
:105764000FF0E2FE54F8083C0746002B4CD02A4ABE
:10577400002394460178A4F1080612F83300884205
:1057840016D1D90002EBC30393F80280B8F1010FDC
:105794001CD0B8F1050F25D1B834D4E8EF2F42F06E
:1057A4000203C4E8E03F0028F7D112F0020F18E02A
:1057B40001330D2BE1D108460EF002FE20B319B3DC
:1057C4000623002230460FF00EF91DE0B834D4E869
:1057D400EF3F43F00102C4E8E02F0028F7D113F0B3
:1057E400010F11D10CEB01035A78A98991420ED310
:1057F4005B68294630469847B8F1010F034603D148
:1058040010B139780029DCD10020BDE8F081B8F16D
:10581400010FF9D10423F4E714E501002DE9F04365
:10582400044687B001F108000D460FF085FE236899
:10583400064601211868D5F80890AD890FF09FFD40
:1058440000283FD0002E3FD01822002168460DF0DA
:1058540093FE0022132120460FF0A0F8019078B3A4
:1058640023684FF012081B68002700930123314678
:105874008DF8143030466B46144AADF810508DF84C
:105884000880ADF81270CDF80C900EF0C6FD9DF8AE
:10589400145075B1019801F00FF832464146204684
:1058A4009DF814300FF09FF83D46284607B0BDE838
:1058B400F08301990029F8D02046FFF7C9FEF4E7E8
:1058C4000E25F2E71225F0E70125EEE77548010001
:1058D4002DE9F0410C7B0546043CE4B2022C084659
:1058E4008CB001D0102C6ED1042108300FF01CFEB6
:1058F4000DF1080806884788011D224640460EF02F
:1059040008F8002861D0002E3AD00024002F36D0A9
:10591400BE4235D84FF42053404601A98DF80440C7
:10592400ADF806300DF0CBFF002834D1AC6814225A
:10593400002107A80DF020FE0122112120460FF0BE
:105944006FF80990002840D001210830CDE90758AC
:105954000FF0BAFD4FF000080A9007AB80F8008002
:10596400394630461A4ACDF82C800EF056FD0A9B73
:105974001C781CBB099800F09FFF0A2318E03E46E0
:1059840001233246102128460FF02DF8002420462A
:105994000CB0BDE8F08142F60103404607A98DF83A
:1059A4001C40ADF81E300DF08AFF0028BED0102335
:1059B4003246102128460FF016F8E8E728460999E0
:1059C400FFF746FEE2E70424E1E70E24DFE700BF29
:1059D400815300002DE9F043866885B01022044607
:1059E4000D46684600210DF0C7FD00220F21304608
:1059F4000FF016F8029058B34FF00108DFF85490F6
:105A0400009405F10807AB89012B04D820460299BC
:105A1400FFF71EFE18E038460FF08EFD6B464A462F
:105A2400014606468DF80C800EF0F7FC9DF80C300C
:105A3400002BE8D0029800F03FFF32460E212046AA
:105A44009DF80C300EF0CFFF002005B0BDE8F083C8
:105A54000E20FAE74D4901002DE9FF41D0F80880F6
:105A640005460F464046012114461E460FF087FCAA
:105A740088B396B31022002168460DF07DFD002204
:105A8400214640460EF0CCFF029040B3BDF82830CA
:105A94003146ADF80430012330468DF80C30114AFC
:105AA4006B4600950EF0B9FC9DF80C4074B1029859
:105AB40000F002FF3246394628469DF80C300EF0BD
:105AC40092FF0024204604B0BDE8F08128460299E4
:105AD400FFF7BEFDF6E71224F4E70124F2E70E24F3
